{
  "contractName": "AcademyCertification",
  "abi": [
    {
      "inputs": [
        {
          "internalType": "address",
          "name": "addressAcademyStudentQuiz",
          "type": "address"
        },
        {
          "internalType": "address",
          "name": "addressMasterName",
          "type": "address"
        }
      ],
      "stateMutability": "nonpayable",
      "type": "constructor"
    },
    {
      "anonymous": false,
      "inputs": [
        {
          "indexed": true,
          "internalType": "bytes32",
          "name": "role",
          "type": "bytes32"
        },
        {
          "indexed": true,
          "internalType": "bytes32",
          "name": "previousAdminRole",
          "type": "bytes32"
        },
        {
          "indexed": true,
          "internalType": "bytes32",
          "name": "newAdminRole",
          "type": "bytes32"
        }
      ],
      "name": "RoleAdminChanged",
      "type": "event"
    },
    {
      "anonymous": false,
      "inputs": [
        {
          "indexed": true,
          "internalType": "bytes32",
          "name": "role",
          "type": "bytes32"
        },
        {
          "indexed": true,
          "internalType": "address",
          "name": "account",
          "type": "address"
        },
        {
          "indexed": true,
          "internalType": "address",
          "name": "sender",
          "type": "address"
        }
      ],
      "name": "RoleGranted",
      "type": "event"
    },
    {
      "anonymous": false,
      "inputs": [
        {
          "indexed": true,
          "internalType": "bytes32",
          "name": "role",
          "type": "bytes32"
        },
        {
          "indexed": true,
          "internalType": "address",
          "name": "account",
          "type": "address"
        },
        {
          "indexed": true,
          "internalType": "address",
          "name": "sender",
          "type": "address"
        }
      ],
      "name": "RoleRevoked",
      "type": "event"
    },
    {
      "inputs": [],
      "name": "DEFAULT_ADMIN_ROLE",
      "outputs": [
        {
          "internalType": "bytes32",
          "name": "",
          "type": "bytes32"
        }
      ],
      "stateMutability": "view",
      "type": "function",
      "constant": true
    },
    {
      "inputs": [],
      "name": "academyStudentQuiz",
      "outputs": [
        {
          "internalType": "contract iAcademyStudentQuiz",
          "name": "",
          "type": "address"
        }
      ],
      "stateMutability": "view",
      "type": "function",
      "constant": true
    },
    {
      "inputs": [
        {
          "internalType": "address",
          "name": "",
          "type": "address"
        },
        {
          "internalType": "string",
          "name": "",
          "type": "string"
        }
      ],
      "name": "certificateIndex",
      "outputs": [
        {
          "internalType": "uint256",
          "name": "",
          "type": "uint256"
        }
      ],
      "stateMutability": "view",
      "type": "function",
      "constant": true
    },
    {
      "inputs": [
        {
          "internalType": "uint256",
          "name": "",
          "type": "uint256"
        }
      ],
      "name": "certificateInfo",
      "outputs": [
        {
          "internalType": "address",
          "name": "studentAddress",
          "type": "address"
        },
        {
          "internalType": "string",
          "name": "studentName",
          "type": "string"
        },
        {
          "internalType": "string",
          "name": "courseName",
          "type": "string"
        },
        {
          "internalType": "string",
          "name": "storageHash",
          "type": "string"
        }
      ],
      "stateMutability": "view",
      "type": "function",
      "constant": true
    },
    {
      "inputs": [],
      "name": "decimalpercent",
      "outputs": [
        {
          "internalType": "uint256",
          "name": "",
          "type": "uint256"
        }
      ],
      "stateMutability": "view",
      "type": "function",
      "constant": true
    },
    {
      "inputs": [
        {
          "internalType": "bytes32",
          "name": "role",
          "type": "bytes32"
        }
      ],
      "name": "getRoleAdmin",
      "outputs": [
        {
          "internalType": "bytes32",
          "name": "",
          "type": "bytes32"
        }
      ],
      "stateMutability": "view",
      "type": "function",
      "constant": true
    },
    {
      "inputs": [
        {
          "internalType": "bytes32",
          "name": "role",
          "type": "bytes32"
        },
        {
          "internalType": "uint256",
          "name": "index",
          "type": "uint256"
        }
      ],
      "name": "getRoleMember",
      "outputs": [
        {
          "internalType": "address",
          "name": "",
          "type": "address"
        }
      ],
      "stateMutability": "view",
      "type": "function",
      "constant": true
    },
    {
      "inputs": [
        {
          "internalType": "bytes32",
          "name": "role",
          "type": "bytes32"
        }
      ],
      "name": "getRoleMemberCount",
      "outputs": [
        {
          "internalType": "uint256",
          "name": "",
          "type": "uint256"
        }
      ],
      "stateMutability": "view",
      "type": "function",
      "constant": true
    },
    {
      "inputs": [
        {
          "internalType": "bytes32",
          "name": "role",
          "type": "bytes32"
        },
        {
          "internalType": "address",
          "name": "account",
          "type": "address"
        }
      ],
      "name": "grantRole",
      "outputs": [],
      "stateMutability": "nonpayable",
      "type": "function"
    },
    {
      "inputs": [
        {
          "internalType": "bytes32",
          "name": "role",
          "type": "bytes32"
        },
        {
          "internalType": "address",
          "name": "account",
          "type": "address"
        }
      ],
      "name": "hasRole",
      "outputs": [
        {
          "internalType": "bool",
          "name": "",
          "type": "bool"
        }
      ],
      "stateMutability": "view",
      "type": "function",
      "constant": true
    },
    {
      "inputs": [],
      "name": "masterName",
      "outputs": [
        {
          "internalType": "contract iMasterName",
          "name": "",
          "type": "address"
        }
      ],
      "stateMutability": "view",
      "type": "function",
      "constant": true
    },
    {
      "inputs": [
        {
          "internalType": "uint256",
          "name": "",
          "type": "uint256"
        }
      ],
      "name": "quizList",
      "outputs": [
        {
          "internalType": "string",
          "name": "",
          "type": "string"
        }
      ],
      "stateMutability": "view",
      "type": "function",
      "constant": true
    },
    {
      "inputs": [
        {
          "internalType": "string",
          "name": "",
          "type": "string"
        }
      ],
      "name": "quizListIndex",
      "outputs": [
        {
          "internalType": "uint256",
          "name": "",
          "type": "uint256"
        }
      ],
      "stateMutability": "view",
      "type": "function",
      "constant": true
    },
    {
      "inputs": [],
      "name": "quizMinimum",
      "outputs": [
        {
          "internalType": "uint256",
          "name": "",
          "type": "uint256"
        }
      ],
      "stateMutability": "view",
      "type": "function",
      "constant": true
    },
    {
      "inputs": [
        {
          "internalType": "bytes32",
          "name": "role",
          "type": "bytes32"
        },
        {
          "internalType": "address",
          "name": "account",
          "type": "address"
        }
      ],
      "name": "renounceRole",
      "outputs": [],
      "stateMutability": "nonpayable",
      "type": "function"
    },
    {
      "inputs": [
        {
          "internalType": "bytes32",
          "name": "role",
          "type": "bytes32"
        },
        {
          "internalType": "address",
          "name": "account",
          "type": "address"
        }
      ],
      "name": "revokeRole",
      "outputs": [],
      "stateMutability": "nonpayable",
      "type": "function"
    },
    {
      "inputs": [
        {
          "internalType": "string",
          "name": "name",
          "type": "string"
        }
      ],
      "name": "addQuiz",
      "outputs": [
        {
          "internalType": "uint256",
          "name": "",
          "type": "uint256"
        }
      ],
      "stateMutability": "nonpayable",
      "type": "function"
    },
    {
      "inputs": [
        {
          "internalType": "string",
          "name": "name",
          "type": "string"
        }
      ],
      "name": "delQuiz",
      "outputs": [
        {
          "internalType": "bool",
          "name": "",
          "type": "bool"
        }
      ],
      "stateMutability": "nonpayable",
      "type": "function"
    },
    {
      "inputs": [
        {
          "internalType": "address",
          "name": "studentAddress",
          "type": "address"
        }
      ],
      "name": "validateStudent",
      "outputs": [
        {
          "internalType": "bool",
          "name": "",
          "type": "bool"
        }
      ],
      "stateMutability": "view",
      "type": "function",
      "constant": true
    },
    {
      "inputs": [
        {
          "internalType": "address",
          "name": "studentAddress",
          "type": "address"
        },
        {
          "internalType": "string",
          "name": "studentName",
          "type": "string"
        },
        {
          "internalType": "string",
          "name": "course",
          "type": "string"
        },
        {
          "internalType": "string",
          "name": "storageHash",
          "type": "string"
        }
      ],
      "name": "registerCertificate",
      "outputs": [
        {
          "internalType": "bool",
          "name": "",
          "type": "bool"
        }
      ],
      "stateMutability": "nonpayable",
      "type": "function"
    },
    {
      "inputs": [
        {
          "internalType": "uint256",
          "name": "value",
          "type": "uint256"
        }
      ],
      "name": "updateQuizMinimum",
      "outputs": [
        {
          "internalType": "bool",
          "name": "",
          "type": "bool"
        }
      ],
      "stateMutability": "nonpayable",
      "type": "function"
    },
    {
      "inputs": [
        {
          "internalType": "address",
          "name": "studentAddress",
          "type": "address"
        },
        {
          "internalType": "string",
          "name": "course",
          "type": "string"
        }
      ],
      "name": "existCertificate",
      "outputs": [
        {
          "internalType": "bool",
          "name": "",
          "type": "bool"
        }
      ],
      "stateMutability": "view",
      "type": "function",
      "constant": true
    },
    {
      "inputs": [
        {
          "internalType": "string",
          "name": "name",
          "type": "string"
        }
      ],
      "name": "existQuiz",
      "outputs": [
        {
          "internalType": "bool",
          "name": "",
          "type": "bool"
        }
      ],
      "stateMutability": "view",
      "type": "function",
      "constant": true
    },
    {
      "inputs": [],
      "name": "countQuiz",
      "outputs": [
        {
          "internalType": "uint256",
          "name": "",
          "type": "uint256"
        }
      ],
      "stateMutability": "view",
      "type": "function",
      "constant": true
    },
    {
      "inputs": [],
      "name": "listQuiz",
      "outputs": [
        {
          "internalType": "string[]",
          "name": "",
          "type": "string[]"
        }
      ],
      "stateMutability": "view",
      "type": "function",
      "constant": true
    },
    {
      "inputs": [
        {
          "internalType": "address",
          "name": "studentAddress",
          "type": "address"
        },
        {
          "internalType": "string",
          "name": "course",
          "type": "string"
        }
      ],
      "name": "getCertificate",
      "outputs": [
        {
          "components": [
            {
              "internalType": "address",
              "name": "studentAddress",
              "type": "address"
            },
            {
              "internalType": "string",
              "name": "studentName",
              "type": "string"
            },
            {
              "internalType": "string",
              "name": "courseName",
              "type": "string"
            },
            {
              "internalType": "string",
              "name": "storageHash",
              "type": "string"
            }
          ],
          "internalType": "struct CertificateStruct",
          "name": "",
          "type": "tuple"
        }
      ],
      "stateMutability": "view",
      "type": "function",
      "constant": true
    }
  ],
  "bytecode": "0x60806040523480156200001157600080fd5b50604051620035983803806200359883398181016040528101906200003791906200028b565b6200004c6000801b33620000de60201b60201c565b81600360006101000a81548173ffffffffffffffffffffffffffffffffffffffff021916908373ffffffffffffffffffffffffffffffffffffffff16021790555080600460006101000a81548173ffffffffffffffffffffffffffffffffffffffff021916908373ffffffffffffffffffffffffffffffffffffffff160217905550603c60078190555050506200031a565b620000f08282620000f460201b60201c565b5050565b62000122816000808581526020019081526020016000206000016200019760201b620017ba1790919060201c565b15620001935762000138620001cf60201b60201c565b73ffffffffffffffffffffffffffffffffffffffff168173ffffffffffffffffffffffffffffffffffffffff16837f2f8788117e7eff1d82e926ec794901d17c78024a50270940304540a733656f0d60405160405180910390a45b5050565b6000620001c7836000018373ffffffffffffffffffffffffffffffffffffffff1660001b620001d760201b60201c565b905092915050565b600033905090565b6000620001eb83836200025160201b60201c565b620002465782600001829080600181540180825580915050600190039060005260206000200160009091909190915055826000018054905083600101600084815260200190815260200160002081905550600190506200024b565b600090505b92915050565b600080836001016000848152602001908152602001600020541415905092915050565b600081519050620002858162000300565b92915050565b600080604083850312156200029f57600080fd5b6000620002af8582860162000274565b9250506020620002c28582860162000274565b9150509250929050565b6000620002d982620002e0565b9050919050565b600073ffffffffffffffffffffffffffffffffffffffff82169050919050565b6200030b81620002cc565b81146200031757600080fd5b50565b61326e806200032a6000396000f3fe608060405234801561001057600080fd5b506004361061018e5760003560e01c806389c05c13116100de578063ba0a9f5011610097578063d547741f11610071578063d547741f14610522578063e10ebf521461053e578063f067d8401461055c578063f4bfccd31461058c5761018e565b8063ba0a9f501461048f578063c84c9724146104c2578063ca15c873146104f25761018e565b806389c05c13146103815780638bad650b146103b15780639010d07c146103e157806391d1485414610411578063a217fddf14610441578063b3f7c3731461045f5761018e565b806343e33aee1161014b578063573279bb11610125578063573279bb146102f7578063581e41bd146103155780636b2b4588146103335780638723ddcd146103635761018e565b806343e33aee146102795780635446d503146102975780635702bc58146102c75761018e565b8063101c623914610193578063248a9ca3146101b157806326bf0f03146101e15780632f2ff15d1461021157806334512f9e1461022d57806336568abe1461025d575b600080fd5b61019b6105bc565b6040516101a8919061297f565b60405180910390f35b6101cb60048036038101906101c691906123b0565b610695565b6040516101d891906129bc565b60405180910390f35b6101fb60048036038101906101f69190612288565b6106b4565b6040516102089190612b2f565b60405180910390f35b61022b600480360381019061022691906123d9565b6109a5565b005b61024760048036038101906102429190612288565b610a18565b60405161025491906129a1565b60405180910390f35b610277600480360381019061027291906123d9565b610a91565b005b610281610b14565b60405161028e9190612b51565b60405180910390f35b6102b160048036038101906102ac9190612451565b610b1a565b6040516102be9190612b51565b60405180910390f35b6102e160048036038101906102dc9190612451565b610b48565b6040516102ee91906129a1565b60405180910390f35b6102ff610b83565b60405161030c9190612b51565b60405180910390f35b61031d610b90565b60405161032a91906129d7565b60405180910390f35b61034d600480360381019061034891906124d3565b610bb6565b60405161035a9190612a0d565b60405180910390f35b61036b610c62565b60405161037891906129f2565b60405180910390f35b61039b60048036038101906103969190612451565b610c88565b6040516103a891906129a1565b60405180910390f35b6103cb60048036038101906103c691906122dc565b610f56565b6040516103d891906129a1565b60405180910390f35b6103fb60048036038101906103f69190612415565b6110bb565b60405161040891906128da565b60405180910390f35b61042b600480360381019061042691906123d9565b6110ec565b60405161043891906129a1565b60405180910390f35b61044961111d565b60405161045691906129bc565b60405180910390f35b610479600480360381019061047491906124d3565b611124565b60405161048691906129a1565b60405180910390f35b6104a960048036038101906104a491906124d3565b6111c6565b6040516104b994939291906128f5565b60405180910390f35b6104dc60048036038101906104d79190612288565b6113be565b6040516104e99190612b51565b60405180910390f35b61050c600480360381019061050791906123b0565b6113f9565b6040516105199190612b51565b60405180910390f35b61053c600480360381019061053791906123d9565b61141f565b005b610546611492565b6040516105539190612b51565b60405180910390f35b61057660048036038101906105719190612451565b611497565b6040516105839190612b51565b60405180910390f35b6105a660048036038101906105a1919061225f565b61158c565b6040516105b391906129a1565b60405180910390f35b60606005805480602002602001604051908101604052809291908181526020016000905b8282101561068c5783829060005260206000200180546105ff90612e46565b80601f016020809104026020016040519081016040528092919081815260200182805461062b90612e46565b80156106785780601f1061064d57610100808354040283529160200191610678565b820191906000526020600020905b81548152906001019060200180831161065b57829003601f168201915b5050505050815260200190600101906105e0565b50505050905090565b6000806000838152602001908152602001600020600201549050919050565b6106bc611e82565b6106c4611e82565b6000600260008673ffffffffffffffffffffffffffffffffffffffff1673ffffffffffffffffffffffffffffffffffffffff1681526020019081526020016000208460405161071391906128c3565b9081526020016040518091039020549050600081111561099a576001808261073b9190612d29565b81548110610772577f4e487b7100000000000000000000000000000000000000000000000000000000600052603260045260246000fd5b90600052602060002090600402016040518060800160405290816000820160009054906101000a900473ffffffffffffffffffffffffffffffffffffffff1673ffffffffffffffffffffffffffffffffffffffff1673ffffffffffffffffffffffffffffffffffffffff1681526020016001820180546107f190612e46565b80601f016020809104026020016040519081016040528092919081815260200182805461081d90612e46565b801561086a5780601f1061083f5761010080835404028352916020019161086a565b820191906000526020600020905b81548152906001019060200180831161084d57829003601f168201915b5050505050815260200160028201805461088390612e46565b80601f01602080910402602001604051908101604052809291908181526020018280546108af90612e46565b80156108fc5780601f106108d1576101008083540402835291602001916108fc565b820191906000526020600020905b8154815290600101906020018083116108df57829003601f168201915b5050505050815260200160038201805461091590612e46565b80601f016020809104026020016040519081016040528092919081815260200182805461094190612e46565b801561098e5780601f106109635761010080835404028352916020019161098e565b820191906000526020600020905b81548152906001019060200180831161097157829003601f168201915b50505050508152505091505b819250505092915050565b6109cb600080848152602001908152602001600020600201546109c66117ea565b6110ec565b610a0a576040517f08c379a0000000000000000000000000000000000000000000000000000000008152600401610a0190612a4f565b60405180910390fd5b610a1482826117f2565b5050565b600080600260008573ffffffffffffffffffffffffffffffffffffffff1673ffffffffffffffffffffffffffffffffffffffff16815260200190815260200160002083604051610a6891906128c3565b9081526020016040518091039020541415610a865760009050610a8b565b600190505b92915050565b610a996117ea565b73ffffffffffffffffffffffffffffffffffffffff168173ffffffffffffffffffffffffffffffffffffffff1614610b06576040517f08c379a0000000000000000000000000000000000000000000000000000000008152600401610afd90612b0f565b60405180910390fd5b610b108282611885565b5050565b60075481565b6006818051602081018201805184825260208301602085012081835280955050505050506000915090505481565b600080600683604051610b5b91906128c3565b9081526020016040518091039020541415610b795760009050610b7e565b600190505b919050565b6000600580549050905090565b600360009054906101000a900473ffffffffffffffffffffffffffffffffffffffff1681565b60058181548110610bc657600080fd5b906000526020600020016000915090508054610be190612e46565b80601f0160208091040260200160405190810160405280929190818152602001828054610c0d90612e46565b8015610c5a5780601f10610c2f57610100808354040283529160200191610c5a565b820191906000526020600020905b815481529060010190602001808311610c3d57829003601f168201915b505050505081565b600460009054906101000a900473ffffffffffffffffffffffffffffffffffffffff1681565b6000610c976000801b336110ec565b610cd6576040517f08c379a0000000000000000000000000000000000000000000000000000000008152600401610ccd90612a8f565b60405180910390fd5b610cdf82610b48565b610cec5760009050610f51565b60006001600684604051610d0091906128c3565b908152602001604051809103902054610d199190612d29565b905060006001600580549050610d2f9190612d29565b9050600060058281548110610d6d577f4e487b7100000000000000000000000000000000000000000000000000000000600052603260045260246000fd5b906000526020600020018054610d8290612e46565b80601f0160208091040260200160405190810160405280929190818152602001828054610dae90612e46565b8015610dfb5780601f10610dd057610100808354040283529160200191610dfb565b820191906000526020600020905b815481529060010190602001808311610dde57829003601f168201915b5050505050905060058281548110610e3c577f4e487b7100000000000000000000000000000000000000000000000000000000600052603260045260246000fd5b9060005260206000200160058481548110610e80577f4e487b7100000000000000000000000000000000000000000000000000000000600052603260045260246000fd5b90600052602060002001908054610e9690612e46565b610ea1929190611ec0565b50600183610eaf9190612c48565b600682604051610ebf91906128c3565b908152602001604051809103902081905550600685604051610ee191906128c3565b9081526020016040518091039020600090556005805480610f2b577f4e487b7100000000000000000000000000000000000000000000000000000000600052603160045260246000fd5b600190038181906000526020600020016000610f479190611f4d565b9055600193505050505b919050565b6000600460009054906101000a900473ffffffffffffffffffffffffffffffffffffffff1673ffffffffffffffffffffffffffffffffffffffff16638f1b8293866040518263ffffffff1660e01b8152600401610fb391906128da565b60206040518083038186803b158015610fcb57600080fd5b505afa158015610fdf573d6000803e3d6000fd5b505050506040513d601f19601f820116820180604052508101906110039190612387565b611042576040517f08c379a000000000000000000000000000000000000000000000000000000000815260040161103990612a6f565b60405180910390fd5b61104b8561158c565b61108a576040517f08c379a000000000000000000000000000000000000000000000000000000000815260040161108190612acf565b60405180910390fd5b600061109886868686611918565b905060008111156110ad5760019150506110b3565b60009150505b949350505050565b60006110e482600080868152602001908152602001600020600001611b2b90919063ffffffff16565b905092915050565b600061111582600080868152602001908152602001600020600001611b4590919063ffffffff16565b905092915050565b6000801b81565b60006111336000801b336110ec565b611172576040517f08c379a000000000000000000000000000000000000000000000000000000000815260040161116990612a8f565b60405180910390fd5b60648211156111b6576040517f08c379a00000000000000000000000000000000000000000000000000000000081526004016111ad90612aef565b60405180910390fd5b8160078190555060019050919050565b600181815481106111d657600080fd5b90600052602060002090600402016000915090508060000160009054906101000a900473ffffffffffffffffffffffffffffffffffffffff169080600101805461121f90612e46565b80601f016020809104026020016040519081016040528092919081815260200182805461124b90612e46565b80156112985780601f1061126d57610100808354040283529160200191611298565b820191906000526020600020905b81548152906001019060200180831161127b57829003601f168201915b5050505050908060020180546112ad90612e46565b80601f01602080910402602001604051908101604052809291908181526020018280546112d990612e46565b80156113265780601f106112fb57610100808354040283529160200191611326565b820191906000526020600020905b81548152906001019060200180831161130957829003601f168201915b50505050509080600301805461133b90612e46565b80601f016020809104026020016040519081016040528092919081815260200182805461136790612e46565b80156113b45780601f10611389576101008083540402835291602001916113b4565b820191906000526020600020905b81548152906001019060200180831161139757829003601f168201915b5050505050905084565b600260205281600052604060002081805160208101820180518482526020830160208501208183528095505050505050600091509150505481565b6000611418600080848152602001908152602001600020600001611b75565b9050919050565b611445600080848152602001908152602001600020600201546114406117ea565b6110ec565b611484576040517f08c379a000000000000000000000000000000000000000000000000000000000815260040161147b90612aaf565b60405180910390fd5b61148e8282611885565b5050565b606481565b60006114a66000801b336110ec565b6114e5576040517f08c379a00000000000000000000000000000000000000000000000000000000081526004016114dc90612a8f565b60405180910390fd5b6114ee82610b48565b156115195760068260405161150391906128c3565b9081526020016040518091039020549050611587565b600582908060018154018082558091505060019003906000526020600020016000909190919091509080519060200190611554929190611f8d565b50600060058054905090508060068460405161157091906128c3565b908152602001604051809103902081905550809150505b919050565b6000806001905060008060005b6005805490508110156117ae57600360009054906101000a900473ffffffffffffffffffffffffffffffffffffffff1673ffffffffffffffffffffffffffffffffffffffff16632ab62198876005848154811061161f577f4e487b7100000000000000000000000000000000000000000000000000000000600052603260045260246000fd5b906000526020600020016040518363ffffffff1660e01b815260040161164692919061294f565b60206040518083038186803b15801561165e57600080fd5b505afa158015611672573d6000803e3d6000fd5b505050506040513d601f19601f8201168201806040525081019061169691906124fc565b925060008314156116aa57600093506117ae565b6000600360009054906101000a900473ffffffffffffffffffffffffffffffffffffffff1673ffffffffffffffffffffffffffffffffffffffff16635c2c7390856040518263ffffffff1660e01b81526004016117079190612b51565b60006040518083038186803b15801561171f57600080fd5b505afa158015611733573d6000803e3d6000fd5b505050506040513d6000823e3d601f19601f8201168201806040525081019061175c9190612492565b9050806020015160ff166064826040015160ff1661177a9190612ccf565b6117849190612c9e565b925060075483101561179a5760009450506117ae565b5080806117a690612ea9565b915050611599565b50829350505050919050565b60006117e2836000018373ffffffffffffffffffffffffffffffffffffffff1660001b611b8a565b905092915050565b600033905090565b611819816000808581526020019081526020016000206000016117ba90919063ffffffff16565b15611881576118266117ea565b73ffffffffffffffffffffffffffffffffffffffff168173ffffffffffffffffffffffffffffffffffffffff16837f2f8788117e7eff1d82e926ec794901d17c78024a50270940304540a733656f0d60405160405180910390a45b5050565b6118ac81600080858152602001908152602001600020600001611bfa90919063ffffffff16565b15611914576118b96117ea565b73ffffffffffffffffffffffffffffffffffffffff168173ffffffffffffffffffffffffffffffffffffffff16837ff6391f5c32d9c69d2a47ea670b442974b53935d1edc7fd64eb21e047a839171b60405160405180910390a45b5050565b60006119248584610a18565b1561198c57600260008673ffffffffffffffffffffffffffffffffffffffff1673ffffffffffffffffffffffffffffffffffffffff1681526020019081526020016000208360405161197691906128c3565b9081526020016040518091039020549050611b23565b611994611e82565b85816000019073ffffffffffffffffffffffffffffffffffffffff16908173ffffffffffffffffffffffffffffffffffffffff1681525050848160200181905250838160400181905250828160600181905250600181908060018154018082558091505060019003906000526020600020906004020160009091909190915060008201518160000160006101000a81548173ffffffffffffffffffffffffffffffffffffffff021916908373ffffffffffffffffffffffffffffffffffffffff1602179055506020820151816001019080519060200190611a76929190611f8d565b506040820151816002019080519060200190611a93929190611f8d565b506060820151816003019080519060200190611ab0929190611f8d565b5050506000600180549050905080600260008973ffffffffffffffffffffffffffffffffffffffff1673ffffffffffffffffffffffffffffffffffffffff16815260200190815260200160002086604051611b0b91906128c3565b90815260200160405180910390208190555080925050505b949350505050565b6000611b3a8360000183611c2a565b60001c905092915050565b6000611b6d836000018373ffffffffffffffffffffffffffffffffffffffff1660001b611cc4565b905092915050565b6000611b8382600001611ce7565b9050919050565b6000611b968383611cc4565b611bef578260000182908060018154018082558091505060019003906000526020600020016000909190919091505582600001805490508360010160008481526020019081526020016000208190555060019050611bf4565b600090505b92915050565b6000611c22836000018373ffffffffffffffffffffffffffffffffffffffff1660001b611cf8565b905092915050565b600081836000018054905011611c75576040517f08c379a0000000000000000000000000000000000000000000000000000000008152600401611c6c90612a2f565b60405180910390fd5b826000018281548110611cb1577f4e487b7100000000000000000000000000000000000000000000000000000000600052603260045260246000fd5b9060005260206000200154905092915050565b600080836001016000848152602001908152602001600020541415905092915050565b600081600001805490509050919050565b60008083600101600084815260200190815260200160002054905060008114611e76576000600182611d2a9190612d29565b9050600060018660000180549050611d429190612d29565b90506000866000018281548110611d82577f4e487b7100000000000000000000000000000000000000000000000000000000600052603260045260246000fd5b9060005260206000200154905080876000018481548110611dcc577f4e487b7100000000000000000000000000000000000000000000000000000000600052603260045260246000fd5b9060005260206000200181905550600183611de79190612c48565b8760010160008381526020019081526020016000208190555086600001805480611e3a577f4e487b7100000000000000000000000000000000000000000000000000000000600052603160045260246000fd5b60019003818190600052602060002001600090559055866001016000878152602001908152602001600020600090556001945050505050611e7c565b60009150505b92915050565b6040518060800160405280600073ffffffffffffffffffffffffffffffffffffffff1681526020016060815260200160608152602001606081525090565b828054611ecc90612e46565b90600052602060002090601f016020900481019282611eee5760008555611f3c565b82601f10611eff5780548555611f3c565b82800160010185558215611f3c57600052602060002091601f016020900482015b82811115611f3b578254825591600101919060010190611f20565b5b509050611f499190612013565b5090565b508054611f5990612e46565b6000825580601f10611f6b5750611f8a565b601f016020900490600052602060002090810190611f899190612013565b5b50565b828054611f9990612e46565b90600052602060002090601f016020900481019282611fbb5760008555612002565b82601f10611fd457805160ff1916838001178555612002565b82800160010185558215612002579182015b82811115612001578251825591602001919060010190611fe6565b5b50905061200f9190612013565b5090565b5b8082111561202c576000816000905550600101612014565b5090565b600061204361203e84612b91565b612b6c565b90508281526020810184848401111561205b57600080fd5b612066848285612e04565b509392505050565b600061208161207c84612b91565b612b6c565b90508281526020810184848401111561209957600080fd5b6120a4848285612e13565b509392505050565b6000813590506120bb816131c5565b92915050565b6000815190506120d0816131c5565b92915050565b6000815190506120e5816131dc565b92915050565b6000813590506120fa816131f3565b92915050565b600082601f83011261211157600080fd5b8135612121848260208601612030565b91505092915050565b600082601f83011261213b57600080fd5b815161214b84826020860161206e565b91505092915050565b600060c0828403121561216657600080fd5b61217060c0612b6c565b90506000612180848285016120c1565b60008301525060206121948482850161224a565b60208301525060406121a88482850161224a565b60408301525060606121bc8482850161224a565b606083015250608082015167ffffffffffffffff8111156121dc57600080fd5b6121e88482850161212a565b60808301525060a082015167ffffffffffffffff81111561220857600080fd5b6122148482850161212a565b60a08301525092915050565b60008135905061222f8161320a565b92915050565b6000815190506122448161320a565b92915050565b60008151905061225981613221565b92915050565b60006020828403121561227157600080fd5b600061227f848285016120ac565b91505092915050565b6000806040838503121561229b57600080fd5b60006122a9858286016120ac565b925050602083013567ffffffffffffffff8111156122c657600080fd5b6122d285828601612100565b9150509250929050565b600080600080608085870312156122f257600080fd5b6000612300878288016120ac565b945050602085013567ffffffffffffffff81111561231d57600080fd5b61232987828801612100565b935050604085013567ffffffffffffffff81111561234657600080fd5b61235287828801612100565b925050606085013567ffffffffffffffff81111561236f57600080fd5b61237b87828801612100565b91505092959194509250565b60006020828403121561239957600080fd5b60006123a7848285016120d6565b91505092915050565b6000602082840312156123c257600080fd5b60006123d0848285016120eb565b91505092915050565b600080604083850312156123ec57600080fd5b60006123fa858286016120eb565b925050602061240b858286016120ac565b9150509250929050565b6000806040838503121561242857600080fd5b6000612436858286016120eb565b925050602061244785828601612220565b9150509250929050565b60006020828403121561246357600080fd5b600082013567ffffffffffffffff81111561247d57600080fd5b61248984828501612100565b91505092915050565b6000602082840312156124a457600080fd5b600082015167ffffffffffffffff8111156124be57600080fd5b6124ca84828501612154565b91505092915050565b6000602082840312156124e557600080fd5b60006124f384828501612220565b91505092915050565b60006020828403121561250e57600080fd5b600061251c84828501612235565b91505092915050565b60006125318383612608565b905092915050565b61254281612d5d565b82525050565b61255181612d5d565b82525050565b600061256282612be7565b61256c8185612c0a565b93508360208202850161257e85612bc2565b8060005b858110156125ba578484038952815161259b8582612525565b94506125a683612bfd565b925060208a01995050600181019050612582565b50829750879550505050505092915050565b6125d581612d6f565b82525050565b6125e481612d7b565b82525050565b6125f381612dbc565b82525050565b61260281612de0565b82525050565b600061261382612bf2565b61261d8185612c1b565b935061262d818560208601612e13565b61263681612fae565b840191505092915050565b600061264c82612bf2565b6126568185612c2c565b9350612666818560208601612e13565b61266f81612fae565b840191505092915050565b600061268582612bf2565b61268f8185612c3d565b935061269f818560208601612e13565b80840191505092915050565b600081546126b881612e46565b6126c28186612c2c565b945060018216600081146126dd57600181146126ef57612722565b60ff1983168652602086019350612722565b6126f885612bd2565b60005b8381101561271a578154818901526001820191506020810190506126fb565b808801955050505b50505092915050565b6000612738602283612c2c565b915061274382612fbf565b604082019050919050565b600061275b602f83612c2c565b91506127668261300e565b604082019050919050565b600061277e602183612c2c565b91506127898261305d565b604082019050919050565b60006127a1602083612c2c565b91506127ac826130ac565b602082019050919050565b60006127c4603083612c2c565b91506127cf826130d5565b604082019050919050565b60006127e7601483612c2c565b91506127f282613124565b602082019050919050565b600061280a601383612c2c565b91506128158261314d565b602082019050919050565b600061282d602f83612c2c565b915061283882613176565b604082019050919050565b600060808301600083015161285b6000860182612539565b50602083015184820360208601526128738282612608565b9150506040830151848203604086015261288d8282612608565b915050606083015184820360608601526128a78282612608565b9150508091505092915050565b6128bd81612da5565b82525050565b60006128cf828461267a565b915081905092915050565b60006020820190506128ef6000830184612548565b92915050565b600060808201905061290a6000830187612548565b818103602083015261291c8186612641565b905081810360408301526129308185612641565b905081810360608301526129448184612641565b905095945050505050565b60006040820190506129646000830185612548565b818103602083015261297681846126ab565b90509392505050565b600060208201905081810360008301526129998184612557565b905092915050565b60006020820190506129b660008301846125cc565b92915050565b60006020820190506129d160008301846125db565b92915050565b60006020820190506129ec60008301846125ea565b92915050565b6000602082019050612a0760008301846125f9565b92915050565b60006020820190508181036000830152612a278184612641565b905092915050565b60006020820190508181036000830152612a488161272b565b9050919050565b60006020820190508181036000830152612a688161274e565b9050919050565b60006020820190508181036000830152612a8881612771565b9050919050565b60006020820190508181036000830152612aa881612794565b9050919050565b60006020820190508181036000830152612ac8816127b7565b9050919050565b60006020820190508181036000830152612ae8816127da565b9050919050565b60006020820190508181036000830152612b08816127fd565b9050919050565b60006020820190508181036000830152612b2881612820565b9050919050565b60006020820190508181036000830152612b498184612843565b905092915050565b6000602082019050612b6660008301846128b4565b92915050565b6000612b76612b87565b9050612b828282612e78565b919050565b6000604051905090565b600067ffffffffffffffff821115612bac57612bab612f7f565b5b612bb582612fae565b9050602081019050919050565b6000819050602082019050919050565b60008190508160005260206000209050919050565b600081519050919050565b600081519050919050565b6000602082019050919050565b600082825260208201905092915050565b600082825260208201905092915050565b600082825260208201905092915050565b600081905092915050565b6000612c5382612da5565b9150612c5e83612da5565b9250827fffffffffffffffffffffffffffffffffffffffffffffffffffffffffffffffff03821115612c9357612c92612ef2565b5b828201905092915050565b6000612ca982612da5565b9150612cb483612da5565b925082612cc457612cc3612f21565b5b828204905092915050565b6000612cda82612da5565b9150612ce583612da5565b9250817fffffffffffffffffffffffffffffffffffffffffffffffffffffffffffffffff0483118215151615612d1e57612d1d612ef2565b5b828202905092915050565b6000612d3482612da5565b9150612d3f83612da5565b925082821015612d5257612d51612ef2565b5b828203905092915050565b6000612d6882612d85565b9050919050565b60008115159050919050565b6000819050919050565b600073ffffffffffffffffffffffffffffffffffffffff82169050919050565b6000819050919050565b600060ff82169050919050565b6000612dc782612dce565b9050919050565b6000612dd982612d85565b9050919050565b6000612deb82612df2565b9050919050565b6000612dfd82612d85565b9050919050565b82818337600083830152505050565b60005b83811015612e31578082015181840152602081019050612e16565b83811115612e40576000848401525b50505050565b60006002820490506001821680612e5e57607f821691505b60208210811415612e7257612e71612f50565b5b50919050565b612e8182612fae565b810181811067ffffffffffffffff82111715612ea057612e9f612f7f565b5b80604052505050565b6000612eb482612da5565b91507fffffffffffffffffffffffffffffffffffffffffffffffffffffffffffffffff821415612ee757612ee6612ef2565b5b600182019050919050565b7f4e487b7100000000000000000000000000000000000000000000000000000000600052601160045260246000fd5b7f4e487b7100000000000000000000000000000000000000000000000000000000600052601260045260246000fd5b7f4e487b7100000000000000000000000000000000000000000000000000000000600052602260045260246000fd5b7f4e487b7100000000000000000000000000000000000000000000000000000000600052604160045260246000fd5b6000601f19601f8301169050919050565b7f456e756d657261626c655365743a20696e646578206f7574206f6620626f756e60008201527f6473000000000000000000000000000000000000000000000000000000000000602082015250565b7f416363657373436f6e74726f6c3a2073656e646572206d75737420626520616e60008201527f2061646d696e20746f206772616e740000000000000000000000000000000000602082015250565b7f73747564656e74206d75737420686176652061206e616d6520636f6e7472616360008201527f7400000000000000000000000000000000000000000000000000000000000000602082015250565b7f41636164656d7943657274696669636174696f6e3a206f6e6c79206f776e6572600082015250565b7f416363657373436f6e74726f6c3a2073656e646572206d75737420626520616e60008201527f2061646d696e20746f207265766f6b6500000000000000000000000000000000602082015250565b7f73747564656e74206e6f7420617070726f766564000000000000000000000000600082015250565b7f496e76616c6964207175697a4d696e696d756d00000000000000000000000000600082015250565b7f416363657373436f6e74726f6c3a2063616e206f6e6c792072656e6f756e636560008201527f20726f6c657320666f722073656c660000000000000000000000000000000000602082015250565b6131ce81612d5d565b81146131d957600080fd5b50565b6131e581612d6f565b81146131f057600080fd5b50565b6131fc81612d7b565b811461320757600080fd5b50565b61321381612da5565b811461321e57600080fd5b50565b61322a81612daf565b811461323557600080fd5b5056fea2646970667358221220020a45ff515621604a06a90ee2994a1d6c6a064139b40106aedbf4e06bdf14de64736f6c63430008010033",
  "immutableReferences": {},
  "source": "// SPDX-License-Identifier: MIT\r\npragma solidity 0.8.1;\r\n\r\n//import \"https://github.com/OpenZeppelin/openzeppelin-contracts/blob/master/contracts/access/AccessControl.sol\";\r\n//import '@openzeppelin/contracts/access/AccessControl.sol';\r\nimport './oz-contracts/access/AccessControl.sol';\r\nimport \"./oz-contracts/utils/math/SafeMath.sol\";\r\n\r\nimport './iAcademyStudentQuiz.sol';\r\nimport './iName.sol';\r\n\r\nstruct CertificateStruct {\r\n    address studentAddress;\r\n    string studentName;\r\n    string courseName;\r\n    string storageHash;\r\n}\r\n\r\n// This certification is exclusive for course Devs 2021-01!\r\n// I found an error retrieving names from MasterName, so this certification is solving this too\r\n\r\ncontract AcademyCertification is AccessControl {\r\n  using SafeMath for uint256;\r\n\r\n  uint256 public constant decimalpercent = 100; //100 = 100%\r\n\r\n  CertificateStruct[] public certificateInfo;    \r\n  mapping(address => mapping(string => uint256)) public certificateIndex;  //By studentAddress, course\r\n\r\n  iAcademyStudentQuiz public academyStudentQuiz;\r\n  iMasterName public masterName;\r\n\r\n  string[] public quizList;\r\n  mapping(string => uint256) public quizListIndex;\r\n  uint256 public quizMinimum;   // In percent  \r\n\r\n  constructor(address addressAcademyStudentQuiz, address addressMasterName) {\r\n      _setupRole(DEFAULT_ADMIN_ROLE, msg.sender);\r\n      academyStudentQuiz = iAcademyStudentQuiz(addressAcademyStudentQuiz);\r\n      masterName = iMasterName(addressMasterName);\r\n      quizMinimum = 60;\r\n  }\r\n\r\n  modifier onlyOwner() {\r\n      require(hasRole(DEFAULT_ADMIN_ROLE, msg.sender), \"AcademyCertification: only owner\");\r\n      _;\r\n  }\r\n\r\n  function addQuiz (string memory name) public onlyOwner returns(uint256) {\r\n    if (existQuiz(name))\r\n        return quizListIndex[name];\r\n\r\n    quizList.push(name);\r\n    uint256 index = quizList.length;\r\n    quizListIndex[name] = index;\r\n    return index;\r\n  }\r\n  \r\n  function delQuiz (string memory name) public onlyOwner returns (bool) {\r\n    if (!existQuiz(name))\r\n        return false;\r\n\r\n    uint256 indexToDelete = quizListIndex[name]-1;\r\n    uint256 indexToMove = quizList.length-1;\r\n    string memory keyToMove = quizList[indexToMove];        \r\n    quizList[indexToDelete] = quizList[indexToMove];\r\n    quizListIndex[keyToMove] = indexToDelete+1;\r\n    delete quizListIndex[name];\r\n    quizList.pop();\r\n    return true;\r\n  }\r\n\r\n  function validateStudent(address studentAddress) public view returns (bool) {\r\n    \r\n    bool pass = true;\r\n    uint256 index;\r\n    uint256 perc;\r\n\r\n    for (uint i = 0; i < quizList.length; i++) {\r\n      index = academyStudentQuiz.indexOf (studentAddress, quizList[i]);\r\n      if (index == 0) {\r\n        pass = false;\r\n        break;\r\n      }\r\n\r\n      StudentQuizStruct memory info = academyStudentQuiz.getStudentQuiz(index);\r\n      perc = info.grade * decimalpercent / info.total;\r\n\r\n      if (perc <  quizMinimum) {\r\n        pass = false;\r\n        break;        \r\n      }\r\n    }\r\n      \r\n    return pass;    \r\n  }\r\n\r\n  function addCertificate (address studentAddress, string memory studentName, string memory course, string memory storageHash) private returns(uint256) {\r\n    if (existCertificate(studentAddress, course))\r\n      return certificateIndex[studentAddress][course];\r\n\r\n    CertificateStruct memory c;\r\n    c.studentAddress = studentAddress;\r\n    c.studentName = studentName;\r\n    c.courseName = course;\r\n    c.storageHash = storageHash;    \r\n\r\n    certificateInfo.push(c);\r\n    uint256 index = certificateInfo.length;\r\n    certificateIndex[studentAddress][course] = index;\r\n    return index;\r\n  }\r\n  \r\n  function registerCertificate(address studentAddress, string memory studentName, string memory course, string memory storageHash) public returns (bool) {\r\n    require (masterName.existsOwner(studentAddress), \"student must have a name contract\");\r\n    require (validateStudent(studentAddress), \"student not approved\");\r\n\r\n    uint256 index = addCertificate(studentAddress, studentName, course, storageHash);\r\n    if (index > 0)\r\n      return true;\r\n    else\r\n      return false;\r\n  }\r\n\r\n  function updateQuizMinimum(uint256 value) public onlyOwner returns (bool) {\r\n    require(value <= decimalpercent, \"Invalid quizMinimum\");\r\n    quizMinimum = value;\r\n    return true;\r\n  }\r\n\r\n  function existCertificate(address studentAddress, string memory course) public view returns (bool) {\r\n    if (certificateIndex[studentAddress][course] == 0)\r\n      return false;\r\n    else\r\n      return true;\r\n  }\r\n\r\n  function existQuiz(string memory name) public view returns (bool) {\r\n      if (quizListIndex[name] == 0)\r\n          return false;\r\n      else\r\n          return true;\r\n  }\r\n\r\n  function countQuiz() public view returns (uint256) {\r\n      return quizList.length;\r\n  }\r\n    \r\n  function listQuiz() public view returns (string[] memory) {\r\n      return quizList;\r\n  }\r\n\r\n  function getCertificate(address studentAddress, string memory course) public view returns (CertificateStruct memory) {\r\n    CertificateStruct memory certificate;\r\n    uint256 index = certificateIndex[studentAddress][course];\r\n    if (index > 0) {\r\n      certificate = certificateInfo[index-1];      \r\n    }\r\n    //return certificateInfo[certificateIndex[studentAddress][course]-1];\r\n    return certificate;\r\n  }\r\n  \r\n  function compareStrings(string memory a, string memory b) private pure returns (bool) {\r\n      return (keccak256(abi.encodePacked((a))) == keccak256(abi.encodePacked((b))));\r\n  }\r\n      \r\n}",
  "sourcePath": "C:/ACADEMY/GITHUB/rsk-academy-dapp/contracts/AcademyCertification.sol",
  "compiler": {
    "name": "solc",
    "version": "0.8.1+commit.df193b15.Emscripten.clang"
  },
  "schemaVersion": "3.4.0",
  "updatedAt": "2021-08-06T14:04:21.575Z",
  "networkType": "ethereum",
  "devdoc": {
    "kind": "dev",
    "methods": {
      "getRoleAdmin(bytes32)": {
        "details": "Returns the admin role that controls `role`. See {grantRole} and {revokeRole}. To change a role's admin, use {_setRoleAdmin}."
      },
      "getRoleMember(bytes32,uint256)": {
        "details": "Returns one of the accounts that have `role`. `index` must be a value between 0 and {getRoleMemberCount}, non-inclusive. Role bearers are not sorted in any particular way, and their ordering may change at any point. WARNING: When using {getRoleMember} and {getRoleMemberCount}, make sure you perform all queries on the same block. See the following https://forum.openzeppelin.com/t/iterating-over-elements-on-enumerableset-in-openzeppelin-contracts/2296[forum post] for more information."
      },
      "getRoleMemberCount(bytes32)": {
        "details": "Returns the number of accounts that have `role`. Can be used together with {getRoleMember} to enumerate all bearers of a role."
      },
      "grantRole(bytes32,address)": {
        "details": "Grants `role` to `account`. If `account` had not been already granted `role`, emits a {RoleGranted} event. Requirements: - the caller must have ``role``'s admin role."
      },
      "hasRole(bytes32,address)": {
        "details": "Returns `true` if `account` has been granted `role`."
      },
      "renounceRole(bytes32,address)": {
        "details": "Revokes `role` from the calling account. Roles are often managed via {grantRole} and {revokeRole}: this function's purpose is to provide a mechanism for accounts to lose their privileges if they are compromised (such as when a trusted device is misplaced). If the calling account had been granted `role`, emits a {RoleRevoked} event. Requirements: - the caller must be `account`."
      },
      "revokeRole(bytes32,address)": {
        "details": "Revokes `role` from `account`. If `account` had been granted `role`, emits a {RoleRevoked} event. Requirements: - the caller must have ``role``'s admin role."
      }
    },
    "version": 1
  },
  "userdoc": {
    "kind": "user",
    "methods": {},
    "version": 1
  }
}