{
  "contractName": "Quote",
  "abi": [
    {
      "inputs": [],
      "stateMutability": "nonpayable",
      "type": "constructor"
    },
    {
      "inputs": [],
      "name": "owner",
      "outputs": [
        {
          "internalType": "address",
          "name": "",
          "type": "address"
        }
      ],
      "stateMutability": "view",
      "type": "function"
    },
    {
      "inputs": [
        {
          "internalType": "address",
          "name": "",
          "type": "address"
        }
      ],
      "name": "whiteList",
      "outputs": [
        {
          "internalType": "bool",
          "name": "",
          "type": "bool"
        }
      ],
      "stateMutability": "view",
      "type": "function"
    },
    {
      "inputs": [
        {
          "internalType": "string",
          "name": "_message",
          "type": "string"
        }
      ],
      "name": "setQuote",
      "outputs": [],
      "stateMutability": "nonpayable",
      "type": "function"
    },
    {
      "inputs": [],
      "name": "getQuote",
      "outputs": [
        {
          "internalType": "string",
          "name": "",
          "type": "string"
        }
      ],
      "stateMutability": "view",
      "type": "function"
    },
    {
      "inputs": [
        {
          "internalType": "address",
          "name": "_member",
          "type": "address"
        }
      ],
      "name": "addMember",
      "outputs": [],
      "stateMutability": "nonpayable",
      "type": "function"
    },
    {
      "inputs": [
        {
          "internalType": "address",
          "name": "_member",
          "type": "address"
        }
      ],
      "name": "delMember",
      "outputs": [],
      "stateMutability": "nonpayable",
      "type": "function"
    }
  ],
  "bytecode": "0x608060405234801561001057600080fd5b50336000806101000a81548173ffffffffffffffffffffffffffffffffffffffff021916908373ffffffffffffffffffffffffffffffffffffffff1602179055506001600260003373ffffffffffffffffffffffffffffffffffffffff1673ffffffffffffffffffffffffffffffffffffffff16815260200190815260200160002060006101000a81548160ff02191690831515021790555061099e806100b86000396000f3fe608060405234801561001057600080fd5b50600436106100625760003560e01c8063171755b1146100675780631f81595d14610085578063372c12b1146100a15780638da5cb5b146100d1578063ca6d56dc146100ef578063e3de17031461010b575b600080fd5b61006f610127565b60405161007c91906106d9565b60405180910390f35b61009f600480360381019061009a919061059c565b6101b9565b005b6100bb60048036038101906100b6919061059c565b6102a2565b6040516100c891906106be565b60405180910390f35b6100d96102c2565b6040516100e691906106a3565b60405180910390f35b6101096004803603810190610104919061059c565b6102e6565b005b610125600480360381019061012091906105c5565b6103cf565b005b6060600180546101369061082d565b80601f01602080910402602001604051908101604052809291908181526020018280546101629061082d565b80156101af5780601f10610184576101008083540402835291602001916101af565b820191906000526020600020905b81548152906001019060200180831161019257829003601f168201915b5050505050905090565b60008054906101000a900473ffffffffffffffffffffffffffffffffffffffff1673ffffffffffffffffffffffffffffffffffffffff163373ffffffffffffffffffffffffffffffffffffffff1614610247576040517f08c379a000000000000000000000000000000000000000000000000000000000815260040161023e906106fb565b60405180910390fd5b6000600260008373ffffffffffffffffffffffffffffffffffffffff1673ffffffffffffffffffffffffffffffffffffffff16815260200190815260200160002060006101000a81548160ff02191690831515021790555050565b60026020528060005260406000206000915054906101000a900460ff1681565b60008054906101000a900473ffffffffffffffffffffffffffffffffffffffff1681565b60008054906101000a900473ffffffffffffffffffffffffffffffffffffffff1673ffffffffffffffffffffffffffffffffffffffff163373ffffffffffffffffffffffffffffffffffffffff1614610374576040517f08c379a000000000000000000000000000000000000000000000000000000000815260040161036b906106fb565b60405180910390fd5b6001600260008373ffffffffffffffffffffffffffffffffffffffff1673ffffffffffffffffffffffffffffffffffffffff16815260200190815260200160002060006101000a81548160ff02191690831515021790555050565b60011515600260003373ffffffffffffffffffffffffffffffffffffffff1673ffffffffffffffffffffffffffffffffffffffff16815260200190815260200160002060009054906101000a900460ff16151514610462576040517f08c379a00000000000000000000000000000000000000000000000000000000081526004016104599061071b565b60405180910390fd5b806001908051906020019061047892919061047c565b5050565b8280546104889061082d565b90600052602060002090601f0160209004810192826104aa57600085556104f1565b82601f106104c357805160ff19168380011785556104f1565b828001600101855582156104f1579182015b828111156104f05782518255916020019190600101906104d5565b5b5090506104fe9190610502565b5090565b5b8082111561051b576000816000905550600101610503565b5090565b600061053261052d84610760565b61073b565b90508281526020810184848401111561054a57600080fd5b6105558482856107eb565b509392505050565b60008135905061056c81610951565b92915050565b600082601f83011261058357600080fd5b813561059384826020860161051f565b91505092915050565b6000602082840312156105ae57600080fd5b60006105bc8482850161055d565b91505092915050565b6000602082840312156105d757600080fd5b600082013567ffffffffffffffff8111156105f157600080fd5b6105fd84828501610572565b91505092915050565b61060f816107ad565b82525050565b61061e816107bf565b82525050565b600061062f82610791565b610639818561079c565b93506106498185602086016107fa565b610652816108ee565b840191505092915050565b600061066a600a8361079c565b9150610675826108ff565b602082019050919050565b600061068d600e8361079c565b915061069882610928565b602082019050919050565b60006020820190506106b86000830184610606565b92915050565b60006020820190506106d36000830184610615565b92915050565b600060208201905081810360008301526106f38184610624565b905092915050565b600060208201905081810360008301526107148161065d565b9050919050565b6000602082019050818103600083015261073481610680565b9050919050565b6000610745610756565b9050610751828261085f565b919050565b6000604051905090565b600067ffffffffffffffff82111561077b5761077a6108bf565b5b610784826108ee565b9050602081019050919050565b600081519050919050565b600082825260208201905092915050565b60006107b8826107cb565b9050919050565b60008115159050919050565b600073ffffffffffffffffffffffffffffffffffffffff82169050919050565b82818337600083830152505050565b60005b838110156108185780820151818401526020810190506107fd565b83811115610827576000848401525b50505050565b6000600282049050600182168061084557607f821691505b6020821081141561085957610858610890565b5b50919050565b610868826108ee565b810181811067ffffffffffffffff82111715610887576108866108bf565b5b80604052505050565b7f4e487b7100000000000000000000000000000000000000000000000000000000600052602260045260246000fd5b7f4e487b7100000000000000000000000000000000000000000000000000000000600052604160045260246000fd5b6000601f19601f8301169050919050565b7f4f6e6c79206f776e657200000000000000000000000000000000000000000000600082015250565b7f4f6e6c792077686974656c697374000000000000000000000000000000000000600082015250565b61095a816107ad565b811461096557600080fd5b5056fea2646970667358221220cbf2d9f785003f83edf920bda16f1d724457e52163c806a7eb1441d4739783e864736f6c63430008010033",
  "immutableReferences": {},
  "source": "// SPDX-License-Identifier: MIT\r\npragma solidity 0.8.1;\r\n\r\ncontract Quote {\r\n  address public owner;\r\n  string private message;  \r\n  mapping (address => bool) public whiteList;\r\n\r\n  constructor() {\r\n      owner = msg.sender;\r\n      whiteList[msg.sender] = true;\r\n  }\r\n  \r\n  modifier onlyOwner {\r\n      require(msg.sender == owner,\"Only owner\");\r\n      _;\r\n  }\r\n\r\n  modifier onlyWhitelist {\r\n      require(whiteList[msg.sender] == true, \"Only whitelist\");\r\n      _;\r\n  }\r\n\r\n  function setQuote(string memory _message) public onlyWhitelist {\r\n      message = _message;\r\n  }\r\n\r\n  function getQuote() public view returns (string memory) {\r\n      return message;\r\n  }\r\n\r\n  function addMember (address _member) public onlyOwner {\r\n      whiteList[_member] = true;\r\n  }\r\n  \r\n  function delMember (address _member) public onlyOwner {\r\n      whiteList[_member] = false;\r\n  }   \r\n}\r\n",
  "sourcePath": "C:/ACADEMY/GITHUB/rsk-academy-dapp/contracts/Quote.sol",
  "compiler": {
    "name": "solc",
    "version": "0.8.1+commit.df193b15.Emscripten.clang"
  },
  "schemaVersion": "3.4.0",
  "updatedAt": "2021-08-06T14:04:21.564Z",
  "networkType": "ethereum",
  "devdoc": {
    "kind": "dev",
    "methods": {},
    "version": 1
  },
  "userdoc": {
    "kind": "user",
    "methods": {},
    "version": 1
  }
}